{
  "address": "0x463d55d6416a7CCa1f7C005a6AC8f0dD70a6f410",
  "abi": [
    {
      "inputs": [],
      "stateMutability": "nonpayable",
      "type": "constructor"
    },
    {
      "anonymous": false,
      "inputs": [
        {
          "indexed": true,
          "internalType": "address",
          "name": "previousOwner",
          "type": "address"
        },
        {
          "indexed": true,
          "internalType": "address",
          "name": "newOwner",
          "type": "address"
        }
      ],
      "name": "OwnershipTransferred",
      "type": "event"
    },
    {
      "inputs": [],
      "name": "contributionCount",
      "outputs": [
        {
          "internalType": "uint256",
          "name": "",
          "type": "uint256"
        }
      ],
      "stateMutability": "view",
      "type": "function"
    },
    {
      "inputs": [
        {
          "internalType": "uint256",
          "name": "projectId",
          "type": "uint256"
        },
        {
          "internalType": "uint256",
          "name": "raiseAmount",
          "type": "uint256"
        }
      ],
      "name": "createContribution",
      "outputs": [],
      "stateMutability": "nonpayable",
      "type": "function"
    },
    {
      "inputs": [
        {
          "internalType": "string",
          "name": "name",
          "type": "string"
        },
        {
          "internalType": "string",
          "name": "description",
          "type": "string"
        },
        {
          "internalType": "address",
          "name": "raiseTokenAddress",
          "type": "address"
        },
        {
          "internalType": "uint256",
          "name": "raisePrice",
          "type": "uint256"
        }
      ],
      "name": "createProject",
      "outputs": [],
      "stateMutability": "nonpayable",
      "type": "function"
    },
    {
      "inputs": [
        {
          "internalType": "uint256",
          "name": "id",
          "type": "uint256"
        }
      ],
      "name": "getContribution",
      "outputs": [
        {
          "components": [
            {
              "internalType": "uint256",
              "name": "id",
              "type": "uint256"
            },
            {
              "internalType": "uint256",
              "name": "projectId",
              "type": "uint256"
            },
            {
              "internalType": "uint256",
              "name": "raiseAmount",
              "type": "uint256"
            },
            {
              "internalType": "address",
              "name": "contributer",
              "type": "address"
            }
          ],
          "internalType": "struct Crowdfund.Contribution",
          "name": "",
          "type": "tuple"
        }
      ],
      "stateMutability": "view",
      "type": "function"
    },
    {
      "inputs": [
        {
          "internalType": "uint256",
          "name": "id",
          "type": "uint256"
        }
      ],
      "name": "getProject",
      "outputs": [
        {
          "components": [
            {
              "internalType": "uint256",
              "name": "id",
              "type": "uint256"
            },
            {
              "internalType": "address",
              "name": "owner",
              "type": "address"
            },
            {
              "internalType": "string",
              "name": "name",
              "type": "string"
            },
            {
              "internalType": "string",
              "name": "description",
              "type": "string"
            },
            {
              "internalType": "address",
              "name": "raiseToken",
              "type": "address"
            },
            {
              "internalType": "uint256",
              "name": "raisePrice",
              "type": "uint256"
            }
          ],
          "internalType": "struct Crowdfund.Project",
          "name": "",
          "type": "tuple"
        }
      ],
      "stateMutability": "view",
      "type": "function"
    },
    {
      "inputs": [
        {
          "internalType": "uint256",
          "name": "projectId",
          "type": "uint256"
        }
      ],
      "name": "getRaisedAmount",
      "outputs": [
        {
          "internalType": "uint256",
          "name": "",
          "type": "uint256"
        }
      ],
      "stateMutability": "view",
      "type": "function"
    },
    {
      "inputs": [
        {
          "internalType": "uint256",
          "name": "id",
          "type": "uint256"
        }
      ],
      "name": "getRelease",
      "outputs": [
        {
          "components": [
            {
              "internalType": "uint256",
              "name": "id",
              "type": "uint256"
            },
            {
              "internalType": "uint256",
              "name": "projectId",
              "type": "uint256"
            },
            {
              "internalType": "uint256",
              "name": "releaseAmount",
              "type": "uint256"
            },
            {
              "internalType": "address",
              "name": "releaseAddress",
              "type": "address"
            }
          ],
          "internalType": "struct Crowdfund.Release",
          "name": "",
          "type": "tuple"
        }
      ],
      "stateMutability": "view",
      "type": "function"
    },
    {
      "inputs": [
        {
          "internalType": "uint256",
          "name": "projectId",
          "type": "uint256"
        }
      ],
      "name": "getReleasedAmount",
      "outputs": [
        {
          "internalType": "uint256",
          "name": "",
          "type": "uint256"
        }
      ],
      "stateMutability": "view",
      "type": "function"
    },
    {
      "inputs": [],
      "name": "owner",
      "outputs": [
        {
          "internalType": "address",
          "name": "",
          "type": "address"
        }
      ],
      "stateMutability": "view",
      "type": "function"
    },
    {
      "inputs": [],
      "name": "projectCount",
      "outputs": [
        {
          "internalType": "uint256",
          "name": "",
          "type": "uint256"
        }
      ],
      "stateMutability": "view",
      "type": "function"
    },
    {
      "inputs": [],
      "name": "releaseCount",
      "outputs": [
        {
          "internalType": "uint256",
          "name": "",
          "type": "uint256"
        }
      ],
      "stateMutability": "view",
      "type": "function"
    },
    {
      "inputs": [
        {
          "internalType": "uint256",
          "name": "projectId",
          "type": "uint256"
        },
        {
          "internalType": "uint256",
          "name": "releaseAmount",
          "type": "uint256"
        },
        {
          "internalType": "address",
          "name": "releaseAddress",
          "type": "address"
        }
      ],
      "name": "releaseFund",
      "outputs": [],
      "stateMutability": "nonpayable",
      "type": "function"
    },
    {
      "inputs": [],
      "name": "renounceOwnership",
      "outputs": [],
      "stateMutability": "nonpayable",
      "type": "function"
    },
    {
      "inputs": [
        {
          "internalType": "address",
          "name": "newOwner",
          "type": "address"
        }
      ],
      "name": "transferOwnership",
      "outputs": [],
      "stateMutability": "nonpayable",
      "type": "function"
    }
  ],
  "transactionHash": "0x921950e9126d31de52b086911467313f9659f54278afed5cd1c9d914c9fe7ec8",
  "args": [],
  "numDeployments": 1,
  "solcInputHash": "bc0c6cce3b534df909d3b53f558e0e0a",
  "bytecode": "0x608060405234801561001057600080fd5b50600160005561001f33610024565b610076565b600180546001600160a01b038381166001600160a01b0319831681179093556040519116919082907f8be0079c531659141344cd1fd0a4f28419497f9722a3daafe3b4186f6b6457e090600090a35050565b61111a806100856000396000f3fe608060405234801561001057600080fd5b50600436106100ea5760003560e01c8063b8d08db21161008c578063eb5cea2311610066578063eb5cea23146101dd578063ecab443f146101fd578063f0f3f2c81461021d578063f2fde38b1461023d57600080fd5b8063b8d08db2146101ae578063bac38339146101b7578063cef42254146101ca57600080fd5b8063715018a6116100c8578063715018a61461012957806377ea47d01461013157806379af2b9a146101445780638da5cb5b1461019357600080fd5b806336fbad26146100ef57806342de9b2a1461010b5780635b18056b14610120575b600080fd5b6100f860025481565b6040519081526020015b60405180910390f35b61011e610119366004610db8565b610250565b005b6100f860035481565b61011e61031c565b61011e61013f366004610ded565b610330565b610157610152366004610e0f565b610456565b60405161010291908151815260208083015190820152604080830151908201526060918201516001600160a01b03169181019190915260800190565b6001546040516001600160a01b039091168152602001610102565b6100f860045481565b61011e6101c5366004610ecb565b6104d8565b6101576101d8366004610e0f565b610626565b6100f86101eb366004610e0f565b60009081526008602052604090205490565b6100f861020b366004610e0f565b60009081526009602052604090205490565b61023061022b366004610e0f565b6106a8565b6040516101029190610f9f565b61011e61024b36600461101d565b610875565b600083815260056020526040902060040154610276906001600160a01b03168284610905565b600480549060006102868361104e565b90915550506040805160808101825260045480825260208083018781528385018781526001600160a01b03878116606087019081526000958652600785528786209651875592516001870155905160028601559051600390940180546001600160a01b031916949091169390931790925585815260099091529081208054849290610312908490611069565b9091555050505050565b61032461099a565b61032e60006109f4565b565b6000828152600560205260409020546103905760405162461bcd60e51b815260206004820152601d60248201527f4572726f723a2050726f6a65637420646f6573206e6f7420657869737400000060448201526064015b60405180910390fd5b6000828152600560205260409020600401546103b7906001600160a01b0316333084610a46565b600380549060006103c78361104e565b90915550506040805160808101825260038054808352602080840187815284860187815233606087019081526000948552600684528785209651875591516001870155516002860155519390920180546001600160a01b0319166001600160a01b039094169390931790925584825260089052908120805483929061044d908490611069565b90915550505050565b61048a604051806080016040528060008152602001600081526020016000815260200160006001600160a01b031681525090565b506000908152600760209081526040918290208251608081018452815481526001820154928101929092526002810154928201929092526003909101546001600160a01b0316606082015290565b6001600160a01b03821661053a5760405162461bcd60e51b815260206004820152602360248201527f4572726f723a205261736520746f6b656e2073686f756c646e2774206265206e6044820152621d5b1b60ea1b6064820152608401610387565b6002805490600061054a8361104e565b90915550506040805160c081018252600280548083523360208085019182528486018a8152606086018a90526001600160a01b03898116608088015260a08701899052600094855260058352969093208551815591516001830180546001600160a01b031916919097161790955590518051939491936105d1938501929190910190610d03565b50606082015180516105ed916003840191602090910190610d03565b5060808201516004820180546001600160a01b0319166001600160a01b0390921691909117905560a09091015160059091015550505050565b61065a604051806080016040528060008152602001600081526020016000815260200160006001600160a01b031681525090565b506000908152600660209081526040918290208251608081018452815481526001820154928101929092526002810154928201929092526003909101546001600160a01b0316606082015290565b6106f36040518060c001604052806000815260200160006001600160a01b03168152602001606081526020016060815260200160006001600160a01b03168152602001600081525090565b600082815260056020908152604091829020825160c0810184528154815260018201546001600160a01b031692810192909252600281018054929391929184019161073d90611081565b80601f016020809104026020016040519081016040528092919081815260200182805461076990611081565b80156107b65780601f1061078b576101008083540402835291602001916107b6565b820191906000526020600020905b81548152906001019060200180831161079957829003601f168201915b505050505081526020016003820180546107cf90611081565b80601f01602080910402602001604051908101604052809291908181526020018280546107fb90611081565b80156108485780601f1061081d57610100808354040283529160200191610848565b820191906000526020600020905b81548152906001019060200180831161082b57829003601f168201915b505050918352505060048201546001600160a01b0316602082015260059091015460409091015292915050565b61087d61099a565b6001600160a01b0381166108f95760405162461bcd60e51b815260206004820152602660248201527f4f776e61626c653a206e6577206f776e657220697320746865207a65726f206160448201527f64647265737300000000000000000000000000000000000000000000000000006064820152608401610387565b610902816109f4565b50565b6040516001600160a01b03831660248201526044810182905261099590849063a9059cbb60e01b906064015b60408051601f198184030181529190526020810180517bffffffffffffffffffffffffffffffffffffffffffffffffffffffff167fffffffff0000000000000000000000000000000000000000000000000000000090931692909217909152610a84565b505050565b6001546001600160a01b0316331461032e5760405162461bcd60e51b815260206004820181905260248201527f4f776e61626c653a2063616c6c6572206973206e6f7420746865206f776e65726044820152606401610387565b600180546001600160a01b038381166001600160a01b0319831681179093556040519116919082907f8be0079c531659141344cd1fd0a4f28419497f9722a3daafe3b4186f6b6457e090600090a35050565b6040516001600160a01b0380851660248301528316604482015260648101829052610a7e9085906323b872dd60e01b90608401610931565b50505050565b6000610ad9826040518060400160405280602081526020017f5361666545524332303a206c6f772d6c6576656c2063616c6c206661696c6564815250856001600160a01b0316610b699092919063ffffffff16565b8051909150156109955780806020019051810190610af791906110bc565b6109955760405162461bcd60e51b815260206004820152602a60248201527f5361666545524332303a204552433230206f7065726174696f6e20646964206e60448201527f6f742073756363656564000000000000000000000000000000000000000000006064820152608401610387565b6060610b788484600085610b82565b90505b9392505050565b606082471015610bfa5760405162461bcd60e51b815260206004820152602660248201527f416464726573733a20696e73756666696369656e742062616c616e636520666f60448201527f722063616c6c00000000000000000000000000000000000000000000000000006064820152608401610387565b6001600160a01b0385163b610c515760405162461bcd60e51b815260206004820152601d60248201527f416464726573733a2063616c6c20746f206e6f6e2d636f6e74726163740000006044820152606401610387565b600080866001600160a01b03168587604051610c6d91906110de565b60006040518083038185875af1925050503d8060008114610caa576040519150601f19603f3d011682016040523d82523d6000602084013e610caf565b606091505b5091509150610cbf828286610cca565b979650505050505050565b60608315610cd9575081610b7b565b825115610ce95782518084602001fd5b8160405162461bcd60e51b815260040161038791906110fa565b828054610d0f90611081565b90600052602060002090601f016020900481019282610d315760008555610d77565b82601f10610d4a57805160ff1916838001178555610d77565b82800160010185558215610d77579182015b82811115610d77578251825591602001919060010190610d5c565b50610d83929150610d87565b5090565b5b80821115610d835760008155600101610d88565b80356001600160a01b0381168114610db357600080fd5b919050565b600080600060608486031215610dcd57600080fd5b8335925060208401359150610de460408501610d9c565b90509250925092565b60008060408385031215610e0057600080fd5b50508035926020909101359150565b600060208284031215610e2157600080fd5b5035919050565b634e487b7160e01b600052604160045260246000fd5b600082601f830112610e4f57600080fd5b813567ffffffffffffffff80821115610e6a57610e6a610e28565b604051601f8301601f19908116603f01168101908282118183101715610e9257610e92610e28565b81604052838152866020858801011115610eab57600080fd5b836020870160208301376000602085830101528094505050505092915050565b60008060008060808587031215610ee157600080fd5b843567ffffffffffffffff80821115610ef957600080fd5b610f0588838901610e3e565b95506020870135915080821115610f1b57600080fd5b50610f2887828801610e3e565b935050610f3760408601610d9c565b9396929550929360600135925050565b60005b83811015610f62578181015183820152602001610f4a565b83811115610a7e5750506000910152565b60008151808452610f8b816020860160208601610f47565b601f01601f19169290920160200192915050565b6020815281516020820152600060208301516001600160a01b0380821660408501526040850151915060c06060850152610fdc60e0850183610f73565b91506060850151601f19858403016080860152610ff98382610f73565b9250508060808601511660a08501525060a084015160c08401528091505092915050565b60006020828403121561102f57600080fd5b610b7b82610d9c565b634e487b7160e01b600052601160045260246000fd5b600060001982141561106257611062611038565b5060010190565b6000821982111561107c5761107c611038565b500190565b600181811c9082168061109557607f821691505b602082108114156110b657634e487b7160e01b600052602260045260246000fd5b50919050565b6000602082840312156110ce57600080fd5b81518015158114610b7b57600080fd5b600082516110f0818460208701610f47565b9190910192915050565b602081526000610b7b6020830184610f7356fea164736f6c634300080a000a",
  "devdoc": {
    "kind": "dev",
    "methods": {
      "owner()": {
        "details": "Returns the address of the current owner."
      },
      "renounceOwnership()": {
        "details": "Leaves the contract without owner. It will not be possible to call `onlyOwner` functions anymore. Can only be called by the current owner. NOTE: Renouncing ownership will leave the contract without an owner, thereby removing any functionality that is only available to the owner."
      },
      "transferOwnership(address)": {
        "details": "Transfers ownership of the contract to a new account (`newOwner`). Can only be called by the current owner."
      }
    },
    "version": 1
  },
  "userdoc": {
    "kind": "user",
    "methods": {},
    "version": 1
  },
  "storageLayout": {
    "storage": [
      {
        "astId": 123,
        "contract": "contracts/Crowdfund.sol:Crowdfund",
        "label": "_status",
        "offset": 0,
        "slot": "0",
        "type": "t_uint256"
      },
      {
        "astId": 7,
        "contract": "contracts/Crowdfund.sol:Crowdfund",
        "label": "_owner",
        "offset": 0,
        "slot": "1",
        "type": "t_address"
      },
      {
        "astId": 911,
        "contract": "contracts/Crowdfund.sol:Crowdfund",
        "label": "projectCount",
        "offset": 0,
        "slot": "2",
        "type": "t_uint256"
      },
      {
        "astId": 913,
        "contract": "contracts/Crowdfund.sol:Crowdfund",
        "label": "contributionCount",
        "offset": 0,
        "slot": "3",
        "type": "t_uint256"
      },
      {
        "astId": 915,
        "contract": "contracts/Crowdfund.sol:Crowdfund",
        "label": "releaseCount",
        "offset": 0,
        "slot": "4",
        "type": "t_uint256"
      },
      {
        "astId": 920,
        "contract": "contracts/Crowdfund.sol:Crowdfund",
        "label": "projects",
        "offset": 0,
        "slot": "5",
        "type": "t_mapping(t_uint256,t_struct(Project)891_storage)"
      },
      {
        "astId": 925,
        "contract": "contracts/Crowdfund.sol:Crowdfund",
        "label": "contribution",
        "offset": 0,
        "slot": "6",
        "type": "t_mapping(t_uint256,t_struct(Contribution)900_storage)"
      },
      {
        "astId": 930,
        "contract": "contracts/Crowdfund.sol:Crowdfund",
        "label": "releases",
        "offset": 0,
        "slot": "7",
        "type": "t_mapping(t_uint256,t_struct(Release)909_storage)"
      },
      {
        "astId": 934,
        "contract": "contracts/Crowdfund.sol:Crowdfund",
        "label": "totalRaised",
        "offset": 0,
        "slot": "8",
        "type": "t_mapping(t_uint256,t_uint256)"
      },
      {
        "astId": 938,
        "contract": "contracts/Crowdfund.sol:Crowdfund",
        "label": "totalReleased",
        "offset": 0,
        "slot": "9",
        "type": "t_mapping(t_uint256,t_uint256)"
      }
    ],
    "types": {
      "t_address": {
        "encoding": "inplace",
        "label": "address",
        "numberOfBytes": "20"
      },
      "t_mapping(t_uint256,t_struct(Contribution)900_storage)": {
        "encoding": "mapping",
        "key": "t_uint256",
        "label": "mapping(uint256 => struct Crowdfund.Contribution)",
        "numberOfBytes": "32",
        "value": "t_struct(Contribution)900_storage"
      },
      "t_mapping(t_uint256,t_struct(Project)891_storage)": {
        "encoding": "mapping",
        "key": "t_uint256",
        "label": "mapping(uint256 => struct Crowdfund.Project)",
        "numberOfBytes": "32",
        "value": "t_struct(Project)891_storage"
      },
      "t_mapping(t_uint256,t_struct(Release)909_storage)": {
        "encoding": "mapping",
        "key": "t_uint256",
        "label": "mapping(uint256 => struct Crowdfund.Release)",
        "numberOfBytes": "32",
        "value": "t_struct(Release)909_storage"
      },
      "t_mapping(t_uint256,t_uint256)": {
        "encoding": "mapping",
        "key": "t_uint256",
        "label": "mapping(uint256 => uint256)",
        "numberOfBytes": "32",
        "value": "t_uint256"
      },
      "t_string_storage": {
        "encoding": "bytes",
        "label": "string",
        "numberOfBytes": "32"
      },
      "t_struct(Contribution)900_storage": {
        "encoding": "inplace",
        "label": "struct Crowdfund.Contribution",
        "members": [
          {
            "astId": 893,
            "contract": "contracts/Crowdfund.sol:Crowdfund",
            "label": "id",
            "offset": 0,
            "slot": "0",
            "type": "t_uint256"
          },
          {
            "astId": 895,
            "contract": "contracts/Crowdfund.sol:Crowdfund",
            "label": "projectId",
            "offset": 0,
            "slot": "1",
            "type": "t_uint256"
          },
          {
            "astId": 897,
            "contract": "contracts/Crowdfund.sol:Crowdfund",
            "label": "raiseAmount",
            "offset": 0,
            "slot": "2",
            "type": "t_uint256"
          },
          {
            "astId": 899,
            "contract": "contracts/Crowdfund.sol:Crowdfund",
            "label": "contributer",
            "offset": 0,
            "slot": "3",
            "type": "t_address"
          }
        ],
        "numberOfBytes": "128"
      },
      "t_struct(Project)891_storage": {
        "encoding": "inplace",
        "label": "struct Crowdfund.Project",
        "members": [
          {
            "astId": 880,
            "contract": "contracts/Crowdfund.sol:Crowdfund",
            "label": "id",
            "offset": 0,
            "slot": "0",
            "type": "t_uint256"
          },
          {
            "astId": 882,
            "contract": "contracts/Crowdfund.sol:Crowdfund",
            "label": "owner",
            "offset": 0,
            "slot": "1",
            "type": "t_address"
          },
          {
            "astId": 884,
            "contract": "contracts/Crowdfund.sol:Crowdfund",
            "label": "name",
            "offset": 0,
            "slot": "2",
            "type": "t_string_storage"
          },
          {
            "astId": 886,
            "contract": "contracts/Crowdfund.sol:Crowdfund",
            "label": "description",
            "offset": 0,
            "slot": "3",
            "type": "t_string_storage"
          },
          {
            "astId": 888,
            "contract": "contracts/Crowdfund.sol:Crowdfund",
            "label": "raiseToken",
            "offset": 0,
            "slot": "4",
            "type": "t_address"
          },
          {
            "astId": 890,
            "contract": "contracts/Crowdfund.sol:Crowdfund",
            "label": "raisePrice",
            "offset": 0,
            "slot": "5",
            "type": "t_uint256"
          }
        ],
        "numberOfBytes": "192"
      },
      "t_struct(Release)909_storage": {
        "encoding": "inplace",
        "label": "struct Crowdfund.Release",
        "members": [
          {
            "astId": 902,
            "contract": "contracts/Crowdfund.sol:Crowdfund",
            "label": "id",
            "offset": 0,
            "slot": "0",
            "type": "t_uint256"
          },
          {
            "astId": 904,
            "contract": "contracts/Crowdfund.sol:Crowdfund",
            "label": "projectId",
            "offset": 0,
            "slot": "1",
            "type": "t_uint256"
          },
          {
            "astId": 906,
            "contract": "contracts/Crowdfund.sol:Crowdfund",
            "label": "releaseAmount",
            "offset": 0,
            "slot": "2",
            "type": "t_uint256"
          },
          {
            "astId": 908,
            "contract": "contracts/Crowdfund.sol:Crowdfund",
            "label": "releaseAddress",
            "offset": 0,
            "slot": "3",
            "type": "t_address"
          }
        ],
        "numberOfBytes": "128"
      },
      "t_uint256": {
        "encoding": "inplace",
        "label": "uint256",
        "numberOfBytes": "32"
      }
    }
  }
}